{
	"contracts/22-09-2022.sol": {
		"lectureFour": {
			"abi": [
				{
					"inputs": [
						{
							"internalType": "uint256",
							"name": "_num1",
							"type": "uint256"
						}
					],
					"name": "check1",
					"outputs": [],
					"stateMutability": "nonpayable",
					"type": "function"
				},
				{
					"inputs": [
						{
							"internalType": "int256",
							"name": "_num2",
							"type": "int256"
						}
					],
					"name": "check2",
					"outputs": [],
					"stateMutability": "nonpayable",
					"type": "function"
				},
				{
					"inputs": [],
					"name": "num1",
					"outputs": [
						{
							"internalType": "uint256",
							"name": "",
							"type": "uint256"
						}
					],
					"stateMutability": "view",
					"type": "function"
				},
				{
					"inputs": [],
					"name": "num2",
					"outputs": [
						{
							"internalType": "int256",
							"name": "",
							"type": "int256"
						}
					],
					"stateMutability": "view",
					"type": "function"
				}
			],
			"devdoc": {
				"kind": "dev",
				"methods": {},
				"version": 1
			},
			"evm": {
				"assembly": "    /* \"contracts/22-09-2022.sol\":27:248  contract lectureFour {\r... */\n  mstore(0x40, 0x80)\n  callvalue\n  dup1\n  iszero\n  tag_1\n  jumpi\n  0x00\n  dup1\n  revert\ntag_1:\n  pop\n  dataSize(sub_0)\n  dup1\n  dataOffset(sub_0)\n  0x00\n  codecopy\n  0x00\n  return\nstop\n\nsub_0: assembly {\n        /* \"contracts/22-09-2022.sol\":27:248  contract lectureFour {\r... */\n      mstore(0x40, 0x80)\n      callvalue\n      dup1\n      iszero\n      tag_1\n      jumpi\n      0x00\n      dup1\n      revert\n    tag_1:\n      pop\n      jumpi(tag_2, lt(calldatasize, 0x04))\n      shr(0xe0, calldataload(0x00))\n      dup1\n      0x15d4266c\n      eq\n      tag_3\n      jumpi\n      dup1\n      0x36cdcbc1\n      eq\n      tag_4\n      jumpi\n      dup1\n      0x3b9eac4b\n      eq\n      tag_5\n      jumpi\n      dup1\n      0x46061579\n      eq\n      tag_6\n      jumpi\n    tag_2:\n      0x00\n      dup1\n      revert\n        /* \"contracts/22-09-2022.sol\":78:93  int public num2 */\n    tag_3:\n      tag_7\n      tag_8\n      jump\t// in\n    tag_7:\n      mload(0x40)\n      tag_9\n      swap2\n      swap1\n      tag_10\n      jump\t// in\n    tag_9:\n      mload(0x40)\n      dup1\n      swap2\n      sub\n      swap1\n      return\n        /* \"contracts/22-09-2022.sol\":180:245  function check2(int _num2) public {\r... */\n    tag_4:\n      tag_11\n      0x04\n      dup1\n      calldatasize\n      sub\n      dup2\n      add\n      swap1\n      tag_12\n      swap2\n      swap1\n      tag_13\n      jump\t// in\n    tag_12:\n      tag_14\n      jump\t// in\n    tag_11:\n      stop\n        /* \"contracts/22-09-2022.sol\":55:71  uint public num1 */\n    tag_5:\n      tag_15\n      tag_16\n      jump\t// in\n    tag_15:\n      mload(0x40)\n      tag_17\n      swap2\n      swap1\n      tag_18\n      jump\t// in\n    tag_17:\n      mload(0x40)\n      dup1\n      swap2\n      sub\n      swap1\n      return\n        /* \"contracts/22-09-2022.sol\":102:172  function check1(uint _num1) public {\r... */\n    tag_6:\n      tag_19\n      0x04\n      dup1\n      calldatasize\n      sub\n      dup2\n      add\n      swap1\n      tag_20\n      swap2\n      swap1\n      tag_21\n      jump\t// in\n    tag_20:\n      tag_22\n      jump\t// in\n    tag_19:\n      stop\n        /* \"contracts/22-09-2022.sol\":78:93  int public num2 */\n    tag_8:\n      sload(0x01)\n      dup2\n      jump\t// out\n        /* \"contracts/22-09-2022.sol\":180:245  function check2(int _num2) public {\r... */\n    tag_14:\n        /* \"contracts/22-09-2022.sol\":232:237  _num2 */\n      dup1\n        /* \"contracts/22-09-2022.sol\":225:229  num2 */\n      0x01\n        /* \"contracts/22-09-2022.sol\":225:237  num2 = _num2 */\n      dup2\n      swap1\n      sstore\n      pop\n        /* \"contracts/22-09-2022.sol\":180:245  function check2(int _num2) public {\r... */\n      pop\n      jump\t// out\n        /* \"contracts/22-09-2022.sol\":55:71  uint public num1 */\n    tag_16:\n      sload(0x00)\n      dup2\n      jump\t// out\n        /* \"contracts/22-09-2022.sol\":102:172  function check1(uint _num1) public {\r... */\n    tag_22:\n        /* \"contracts/22-09-2022.sol\":159:164  _num1 */\n      dup1\n        /* \"contracts/22-09-2022.sol\":152:156  num1 */\n      0x00\n        /* \"contracts/22-09-2022.sol\":152:164  num1 = _num1 */\n      dup2\n      swap1\n      sstore\n      pop\n        /* \"contracts/22-09-2022.sol\":102:172  function check1(uint _num1) public {\r... */\n      pop\n      jump\t// out\n        /* \"#utility.yul\":7:144   */\n    tag_26:\n        /* \"#utility.yul\":52:57   */\n      0x00\n        /* \"#utility.yul\":90:96   */\n      dup2\n        /* \"#utility.yul\":77:97   */\n      calldataload\n        /* \"#utility.yul\":68:97   */\n      swap1\n      pop\n        /* \"#utility.yul\":106:138   */\n      tag_28\n        /* \"#utility.yul\":132:137   */\n      dup2\n        /* \"#utility.yul\":106:138   */\n      tag_29\n      jump\t// in\n    tag_28:\n        /* \"#utility.yul\":58:144   */\n      swap3\n      swap2\n      pop\n      pop\n      jump\t// out\n        /* \"#utility.yul\":150:289   */\n    tag_30:\n        /* \"#utility.yul\":196:201   */\n      0x00\n        /* \"#utility.yul\":234:240   */\n      dup2\n        /* \"#utility.yul\":221:241   */\n      calldataload\n        /* \"#utility.yul\":212:241   */\n      swap1\n      pop\n        /* \"#utility.yul\":250:283   */\n      tag_32\n        /* \"#utility.yul\":277:282   */\n      dup2\n        /* \"#utility.yul\":250:283   */\n      tag_33\n      jump\t// in\n    tag_32:\n        /* \"#utility.yul\":202:289   */\n      swap3\n      swap2\n      pop\n      pop\n      jump\t// out\n        /* \"#utility.yul\":295:622   */\n    tag_13:\n        /* \"#utility.yul\":353:359   */\n      0x00\n        /* \"#utility.yul\":402:404   */\n      0x20\n        /* \"#utility.yul\":390:399   */\n      dup3\n        /* \"#utility.yul\":381:388   */\n      dup5\n        /* \"#utility.yul\":377:400   */\n      sub\n        /* \"#utility.yul\":373:405   */\n      slt\n        /* \"#utility.yul\":370:372   */\n      iszero\n      tag_35\n      jumpi\n        /* \"#utility.yul\":408:487   */\n      tag_36\n      tag_37\n      jump\t// in\n    tag_36:\n        /* \"#utility.yul\":370:372   */\n    tag_35:\n        /* \"#utility.yul\":528:529   */\n      0x00\n        /* \"#utility.yul\":553:605   */\n      tag_38\n        /* \"#utility.yul\":597:604   */\n      dup5\n        /* \"#utility.yul\":588:594   */\n      dup3\n        /* \"#utility.yul\":577:586   */\n      dup6\n        /* \"#utility.yul\":573:595   */\n      add\n        /* \"#utility.yul\":553:605   */\n      tag_26\n      jump\t// in\n    tag_38:\n        /* \"#utility.yul\":543:605   */\n      swap2\n      pop\n        /* \"#utility.yul\":499:615   */\n      pop\n        /* \"#utility.yul\":360:622   */\n      swap3\n      swap2\n      pop\n      pop\n      jump\t// out\n        /* \"#utility.yul\":628:957   */\n    tag_21:\n        /* \"#utility.yul\":687:693   */\n      0x00\n        /* \"#utility.yul\":736:738   */\n      0x20\n        /* \"#utility.yul\":724:733   */\n      dup3\n        /* \"#utility.yul\":715:722   */\n      dup5\n        /* \"#utility.yul\":711:734   */\n      sub\n        /* \"#utility.yul\":707:739   */\n      slt\n        /* \"#utility.yul\":704:706   */\n      iszero\n      tag_40\n      jumpi\n        /* \"#utility.yul\":742:821   */\n      tag_41\n      tag_37\n      jump\t// in\n    tag_41:\n        /* \"#utility.yul\":704:706   */\n    tag_40:\n        /* \"#utility.yul\":862:863   */\n      0x00\n        /* \"#utility.yul\":887:940   */\n      tag_42\n        /* \"#utility.yul\":932:939   */\n      dup5\n        /* \"#utility.yul\":923:929   */\n      dup3\n        /* \"#utility.yul\":912:921   */\n      dup6\n        /* \"#utility.yul\":908:930   */\n      add\n        /* \"#utility.yul\":887:940   */\n      tag_30\n      jump\t// in\n    tag_42:\n        /* \"#utility.yul\":877:940   */\n      swap2\n      pop\n        /* \"#utility.yul\":833:950   */\n      pop\n        /* \"#utility.yul\":694:957   */\n      swap3\n      swap2\n      pop\n      pop\n      jump\t// out\n        /* \"#utility.yul\":963:1078   */\n    tag_43:\n        /* \"#utility.yul\":1048:1071   */\n      tag_45\n        /* \"#utility.yul\":1065:1070   */\n      dup2\n        /* \"#utility.yul\":1048:1071   */\n      tag_46\n      jump\t// in\n    tag_45:\n        /* \"#utility.yul\":1043:1046   */\n      dup3\n        /* \"#utility.yul\":1036:1072   */\n      mstore\n        /* \"#utility.yul\":1026:1078   */\n      pop\n      pop\n      jump\t// out\n        /* \"#utility.yul\":1084:1202   */\n    tag_47:\n        /* \"#utility.yul\":1171:1195   */\n      tag_49\n        /* \"#utility.yul\":1189:1194   */\n      dup2\n        /* \"#utility.yul\":1171:1195   */\n      tag_50\n      jump\t// in\n    tag_49:\n        /* \"#utility.yul\":1166:1169   */\n      dup3\n        /* \"#utility.yul\":1159:1196   */\n      mstore\n        /* \"#utility.yul\":1149:1202   */\n      pop\n      pop\n      jump\t// out\n        /* \"#utility.yul\":1208:1426   */\n    tag_10:\n        /* \"#utility.yul\":1299:1303   */\n      0x00\n        /* \"#utility.yul\":1337:1339   */\n      0x20\n        /* \"#utility.yul\":1326:1335   */\n      dup3\n        /* \"#utility.yul\":1322:1340   */\n      add\n        /* \"#utility.yul\":1314:1340   */\n      swap1\n      pop\n        /* \"#utility.yul\":1350:1419   */\n      tag_52\n        /* \"#utility.yul\":1416:1417   */\n      0x00\n        /* \"#utility.yul\":1405:1414   */\n      dup4\n        /* \"#utility.yul\":1401:1418   */\n      add\n        /* \"#utility.yul\":1392:1398   */\n      dup5\n        /* \"#utility.yul\":1350:1419   */\n      tag_43\n      jump\t// in\n    tag_52:\n        /* \"#utility.yul\":1304:1426   */\n      swap3\n      swap2\n      pop\n      pop\n      jump\t// out\n        /* \"#utility.yul\":1432:1654   */\n    tag_18:\n        /* \"#utility.yul\":1525:1529   */\n      0x00\n        /* \"#utility.yul\":1563:1565   */\n      0x20\n        /* \"#utility.yul\":1552:1561   */\n      dup3\n        /* \"#utility.yul\":1548:1566   */\n      add\n        /* \"#utility.yul\":1540:1566   */\n      swap1\n      pop\n        /* \"#utility.yul\":1576:1647   */\n      tag_54\n        /* \"#utility.yul\":1644:1645   */\n      0x00\n        /* \"#utility.yul\":1633:1642   */\n      dup4\n        /* \"#utility.yul\":1629:1646   */\n      add\n        /* \"#utility.yul\":1620:1626   */\n      dup5\n        /* \"#utility.yul\":1576:1647   */\n      tag_47\n      jump\t// in\n    tag_54:\n        /* \"#utility.yul\":1530:1654   */\n      swap3\n      swap2\n      pop\n      pop\n      jump\t// out\n        /* \"#utility.yul\":1741:1817   */\n    tag_46:\n        /* \"#utility.yul\":1777:1784   */\n      0x00\n        /* \"#utility.yul\":1806:1811   */\n      dup2\n        /* \"#utility.yul\":1795:1811   */\n      swap1\n      pop\n        /* \"#utility.yul\":1785:1817   */\n      swap2\n      swap1\n      pop\n      jump\t// out\n        /* \"#utility.yul\":1823:1900   */\n    tag_50:\n        /* \"#utility.yul\":1860:1867   */\n      0x00\n        /* \"#utility.yul\":1889:1894   */\n      dup2\n        /* \"#utility.yul\":1878:1894   */\n      swap1\n      pop\n        /* \"#utility.yul\":1868:1900   */\n      swap2\n      swap1\n      pop\n      jump\t// out\n        /* \"#utility.yul\":2029:2146   */\n    tag_37:\n        /* \"#utility.yul\":2138:2139   */\n      0x00\n        /* \"#utility.yul\":2135:2136   */\n      dup1\n        /* \"#utility.yul\":2128:2140   */\n      revert\n        /* \"#utility.yul\":2152:2272   */\n    tag_29:\n        /* \"#utility.yul\":2224:2247   */\n      tag_63\n        /* \"#utility.yul\":2241:2246   */\n      dup2\n        /* \"#utility.yul\":2224:2247   */\n      tag_46\n      jump\t// in\n    tag_63:\n        /* \"#utility.yul\":2217:2222   */\n      dup2\n        /* \"#utility.yul\":2214:2248   */\n      eq\n        /* \"#utility.yul\":2204:2206   */\n      tag_64\n      jumpi\n        /* \"#utility.yul\":2262:2263   */\n      0x00\n        /* \"#utility.yul\":2259:2260   */\n      dup1\n        /* \"#utility.yul\":2252:2264   */\n      revert\n        /* \"#utility.yul\":2204:2206   */\n    tag_64:\n        /* \"#utility.yul\":2194:2272   */\n      pop\n      jump\t// out\n        /* \"#utility.yul\":2278:2400   */\n    tag_33:\n        /* \"#utility.yul\":2351:2375   */\n      tag_66\n        /* \"#utility.yul\":2369:2374   */\n      dup2\n        /* \"#utility.yul\":2351:2375   */\n      tag_50\n      jump\t// in\n    tag_66:\n        /* \"#utility.yul\":2344:2349   */\n      dup2\n        /* \"#utility.yul\":2341:2376   */\n      eq\n        /* \"#utility.yul\":2331:2333   */\n      tag_67\n      jumpi\n        /* \"#utility.yul\":2390:2391   */\n      0x00\n        /* \"#utility.yul\":2387:2388   */\n      dup1\n        /* \"#utility.yul\":2380:2392   */\n      revert\n        /* \"#utility.yul\":2331:2333   */\n    tag_67:\n        /* \"#utility.yul\":2321:2400   */\n      pop\n      jump\t// out\n\n    auxdata: 0xa2646970667358221220f02b2db4071ee33216d0a6908a1cf7359d1d8318145b55b6ab292828c2d0b1f964736f6c63430008050033\n}\n",
				"bytecode": {
					"linkReferences": {},
					"object": "608060405234801561001057600080fd5b5061023a806100206000396000f3fe608060405234801561001057600080fd5b506004361061004c5760003560e01c806315d4266c1461005157806336cdcbc11461006f5780633b9eac4b1461008b57806346061579146100a9575b600080fd5b6100596100c5565b6040516100669190610187565b60405180910390f35b6100896004803603810190610084919061010f565b6100cb565b005b6100936100d5565b6040516100a091906101a2565b60405180910390f35b6100c360048036038101906100be919061013c565b6100db565b005b60015481565b8060018190555050565b60005481565b8060008190555050565b6000813590506100f4816101d6565b92915050565b600081359050610109816101ed565b92915050565b600060208284031215610125576101246101d1565b5b6000610133848285016100e5565b91505092915050565b600060208284031215610152576101516101d1565b5b6000610160848285016100fa565b91505092915050565b610172816101bd565b82525050565b610181816101c7565b82525050565b600060208201905061019c6000830184610169565b92915050565b60006020820190506101b76000830184610178565b92915050565b6000819050919050565b6000819050919050565b600080fd5b6101df816101bd565b81146101ea57600080fd5b50565b6101f6816101c7565b811461020157600080fd5b5056fea2646970667358221220f02b2db4071ee33216d0a6908a1cf7359d1d8318145b55b6ab292828c2d0b1f964736f6c63430008050033",
					"opcodes": "PUSH1 0x80 PUSH1 0x40 MSTORE CALLVALUE DUP1 ISZERO PUSH2 0x10 JUMPI PUSH1 0x0 DUP1 REVERT JUMPDEST POP PUSH2 0x23A DUP1 PUSH2 0x20 PUSH1 0x0 CODECOPY PUSH1 0x0 RETURN INVALID PUSH1 0x80 PUSH1 0x40 MSTORE CALLVALUE DUP1 ISZERO PUSH2 0x10 JUMPI PUSH1 0x0 DUP1 REVERT JUMPDEST POP PUSH1 0x4 CALLDATASIZE LT PUSH2 0x4C JUMPI PUSH1 0x0 CALLDATALOAD PUSH1 0xE0 SHR DUP1 PUSH4 0x15D4266C EQ PUSH2 0x51 JUMPI DUP1 PUSH4 0x36CDCBC1 EQ PUSH2 0x6F JUMPI DUP1 PUSH4 0x3B9EAC4B EQ PUSH2 0x8B JUMPI DUP1 PUSH4 0x46061579 EQ PUSH2 0xA9 JUMPI JUMPDEST PUSH1 0x0 DUP1 REVERT JUMPDEST PUSH2 0x59 PUSH2 0xC5 JUMP JUMPDEST PUSH1 0x40 MLOAD PUSH2 0x66 SWAP2 SWAP1 PUSH2 0x187 JUMP JUMPDEST PUSH1 0x40 MLOAD DUP1 SWAP2 SUB SWAP1 RETURN JUMPDEST PUSH2 0x89 PUSH1 0x4 DUP1 CALLDATASIZE SUB DUP2 ADD SWAP1 PUSH2 0x84 SWAP2 SWAP1 PUSH2 0x10F JUMP JUMPDEST PUSH2 0xCB JUMP JUMPDEST STOP JUMPDEST PUSH2 0x93 PUSH2 0xD5 JUMP JUMPDEST PUSH1 0x40 MLOAD PUSH2 0xA0 SWAP2 SWAP1 PUSH2 0x1A2 JUMP JUMPDEST PUSH1 0x40 MLOAD DUP1 SWAP2 SUB SWAP1 RETURN JUMPDEST PUSH2 0xC3 PUSH1 0x4 DUP1 CALLDATASIZE SUB DUP2 ADD SWAP1 PUSH2 0xBE SWAP2 SWAP1 PUSH2 0x13C JUMP JUMPDEST PUSH2 0xDB JUMP JUMPDEST STOP JUMPDEST PUSH1 0x1 SLOAD DUP2 JUMP JUMPDEST DUP1 PUSH1 0x1 DUP2 SWAP1 SSTORE POP POP JUMP JUMPDEST PUSH1 0x0 SLOAD DUP2 JUMP JUMPDEST DUP1 PUSH1 0x0 DUP2 SWAP1 SSTORE POP POP JUMP JUMPDEST PUSH1 0x0 DUP2 CALLDATALOAD SWAP1 POP PUSH2 0xF4 DUP2 PUSH2 0x1D6 JUMP JUMPDEST SWAP3 SWAP2 POP POP JUMP JUMPDEST PUSH1 0x0 DUP2 CALLDATALOAD SWAP1 POP PUSH2 0x109 DUP2 PUSH2 0x1ED JUMP JUMPDEST SWAP3 SWAP2 POP POP JUMP JUMPDEST PUSH1 0x0 PUSH1 0x20 DUP3 DUP5 SUB SLT ISZERO PUSH2 0x125 JUMPI PUSH2 0x124 PUSH2 0x1D1 JUMP JUMPDEST JUMPDEST PUSH1 0x0 PUSH2 0x133 DUP5 DUP3 DUP6 ADD PUSH2 0xE5 JUMP JUMPDEST SWAP2 POP POP SWAP3 SWAP2 POP POP JUMP JUMPDEST PUSH1 0x0 PUSH1 0x20 DUP3 DUP5 SUB SLT ISZERO PUSH2 0x152 JUMPI PUSH2 0x151 PUSH2 0x1D1 JUMP JUMPDEST JUMPDEST PUSH1 0x0 PUSH2 0x160 DUP5 DUP3 DUP6 ADD PUSH2 0xFA JUMP JUMPDEST SWAP2 POP POP SWAP3 SWAP2 POP POP JUMP JUMPDEST PUSH2 0x172 DUP2 PUSH2 0x1BD JUMP JUMPDEST DUP3 MSTORE POP POP JUMP JUMPDEST PUSH2 0x181 DUP2 PUSH2 0x1C7 JUMP JUMPDEST DUP3 MSTORE POP POP JUMP JUMPDEST PUSH1 0x0 PUSH1 0x20 DUP3 ADD SWAP1 POP PUSH2 0x19C PUSH1 0x0 DUP4 ADD DUP5 PUSH2 0x169 JUMP JUMPDEST SWAP3 SWAP2 POP POP JUMP JUMPDEST PUSH1 0x0 PUSH1 0x20 DUP3 ADD SWAP1 POP PUSH2 0x1B7 PUSH1 0x0 DUP4 ADD DUP5 PUSH2 0x178 JUMP JUMPDEST SWAP3 SWAP2 POP POP JUMP JUMPDEST PUSH1 0x0 DUP2 SWAP1 POP SWAP2 SWAP1 POP JUMP JUMPDEST PUSH1 0x0 DUP2 SWAP1 POP SWAP2 SWAP1 POP JUMP JUMPDEST PUSH1 0x0 DUP1 REVERT JUMPDEST PUSH2 0x1DF DUP2 PUSH2 0x1BD JUMP JUMPDEST DUP2 EQ PUSH2 0x1EA JUMPI PUSH1 0x0 DUP1 REVERT JUMPDEST POP JUMP JUMPDEST PUSH2 0x1F6 DUP2 PUSH2 0x1C7 JUMP JUMPDEST DUP2 EQ PUSH2 0x201 JUMPI PUSH1 0x0 DUP1 REVERT JUMPDEST POP JUMP INVALID LOG2 PUSH5 0x6970667358 0x22 SLT KECCAK256 CREATE 0x2B 0x2D 0xB4 SMOD 0x1E 0xE3 ORIGIN AND 0xD0 0xA6 SWAP1 DUP11 SHR 0xF7 CALLDATALOAD SWAP14 SAR DUP4 XOR EQ JUMPDEST SSTORE 0xB6 0xAB 0x29 0x28 0x28 0xC2 0xD0 0xB1 0xF9 PUSH5 0x736F6C6343 STOP ADDMOD SDIV STOP CALLER "
				},
				"gasEstimates": {
					"creation": {
						"codeDepositCost": "114000",
						"executionCost": "159",
						"totalCost": "114159"
					},
					"external": {
						"check1(uint256)": "22564",
						"check2(int256)": "22520",
						"num1()": "2451",
						"num2()": "2407"
					}
				},
				"methodIdentifiers": {
					"check1(uint256)": "46061579",
					"check2(int256)": "36cdcbc1",
					"num1()": "3b9eac4b",
					"num2()": "15d4266c"
				}
			},
			"storageLayout": {
				"storage": [
					{
						"astId": 3,
						"contract": "contracts/22-09-2022.sol:lectureFour",
						"label": "num1",
						"offset": 0,
						"slot": "0",
						"type": "t_uint256"
					},
					{
						"astId": 5,
						"contract": "contracts/22-09-2022.sol:lectureFour",
						"label": "num2",
						"offset": 0,
						"slot": "1",
						"type": "t_int256"
					}
				],
				"types": {
					"t_int256": {
						"encoding": "inplace",
						"label": "int256",
						"numberOfBytes": "32"
					},
					"t_uint256": {
						"encoding": "inplace",
						"label": "uint256",
						"numberOfBytes": "32"
					}
				}
			},
			"userdoc": {
				"kind": "user",
				"methods": {},
				"version": 1
			}
		}
	}
}