{
	"contracts/22-09-2022.sol": {
		"lectureFour": {
			"abi": [
				{
					"inputs": [
						{
							"internalType": "uint256",
							"name": "_num1",
							"type": "uint256"
						}
					],
					"name": "check1",
					"outputs": [],
					"stateMutability": "nonpayable",
					"type": "function"
				},
				{
					"inputs": [
						{
							"internalType": "int256",
							"name": "_num2",
							"type": "int256"
						}
					],
					"name": "check2",
					"outputs": [],
					"stateMutability": "nonpayable",
					"type": "function"
				},
				{
					"inputs": [
						{
							"internalType": "address",
							"name": "_myaddr",
							"type": "address"
						}
					],
					"name": "getaddr",
					"outputs": [],
					"stateMutability": "nonpayable",
					"type": "function"
				},
				{
					"inputs": [],
					"name": "myaddress",
					"outputs": [
						{
							"internalType": "address",
							"name": "",
							"type": "address"
						}
					],
					"stateMutability": "view",
					"type": "function"
				},
				{
					"inputs": [],
					"name": "num1",
					"outputs": [
						{
							"internalType": "uint256",
							"name": "",
							"type": "uint256"
						}
					],
					"stateMutability": "view",
					"type": "function"
				},
				{
					"inputs": [],
					"name": "num2",
					"outputs": [
						{
							"internalType": "int256",
							"name": "",
							"type": "int256"
						}
					],
					"stateMutability": "view",
					"type": "function"
				}
			],
			"devdoc": {
				"kind": "dev",
				"methods": {},
				"version": 1
			},
			"evm": {
				"assembly": "    /* \"contracts/22-09-2022.sol\":27:385  contract lectureFour {\r... */\n  mstore(0x40, 0x80)\n  callvalue\n  dup1\n  iszero\n  tag_1\n  jumpi\n  0x00\n  dup1\n  revert\ntag_1:\n  pop\n  dataSize(sub_0)\n  dup1\n  dataOffset(sub_0)\n  0x00\n  codecopy\n  0x00\n  return\nstop\n\nsub_0: assembly {\n        /* \"contracts/22-09-2022.sol\":27:385  contract lectureFour {\r... */\n      mstore(0x40, 0x80)\n      callvalue\n      dup1\n      iszero\n      tag_1\n      jumpi\n      0x00\n      dup1\n      revert\n    tag_1:\n      pop\n      jumpi(tag_2, lt(calldatasize, 0x04))\n      shr(0xe0, calldataload(0x00))\n      dup1\n      0x15d4266c\n      eq\n      tag_3\n      jumpi\n      dup1\n      0x36cdcbc1\n      eq\n      tag_4\n      jumpi\n      dup1\n      0x3b9eac4b\n      eq\n      tag_5\n      jumpi\n      dup1\n      0x46061579\n      eq\n      tag_6\n      jumpi\n      dup1\n      0x9e2da9d5\n      eq\n      tag_7\n      jumpi\n      dup1\n      0xfcf814c3\n      eq\n      tag_8\n      jumpi\n    tag_2:\n      0x00\n      dup1\n      revert\n        /* \"contracts/22-09-2022.sol\":78:93  int public num2 */\n    tag_3:\n      tag_9\n      tag_10\n      jump\t// in\n    tag_9:\n      mload(0x40)\n      tag_11\n      swap2\n      swap1\n      tag_12\n      jump\t// in\n    tag_11:\n      mload(0x40)\n      dup1\n      swap2\n      sub\n      swap1\n      return\n        /* \"contracts/22-09-2022.sol\":211:276  function check2(int _num2) public {\r... */\n    tag_4:\n      tag_13\n      0x04\n      dup1\n      calldatasize\n      sub\n      dup2\n      add\n      swap1\n      tag_14\n      swap2\n      swap1\n      tag_15\n      jump\t// in\n    tag_14:\n      tag_16\n      jump\t// in\n    tag_13:\n      stop\n        /* \"contracts/22-09-2022.sol\":55:71  uint public num1 */\n    tag_5:\n      tag_17\n      tag_18\n      jump\t// in\n    tag_17:\n      mload(0x40)\n      tag_19\n      swap2\n      swap1\n      tag_20\n      jump\t// in\n    tag_19:\n      mload(0x40)\n      dup1\n      swap2\n      sub\n      swap1\n      return\n        /* \"contracts/22-09-2022.sol\":133:203  function check1(uint _num1) public {\r... */\n    tag_6:\n      tag_21\n      0x04\n      dup1\n      calldatasize\n      sub\n      dup2\n      add\n      swap1\n      tag_22\n      swap2\n      swap1\n      tag_23\n      jump\t// in\n    tag_22:\n      tag_24\n      jump\t// in\n    tag_21:\n      stop\n        /* \"contracts/22-09-2022.sol\":284:382  function getaddr(address _myaddr) public {\r... */\n    tag_7:\n      tag_25\n      0x04\n      dup1\n      calldatasize\n      sub\n      dup2\n      add\n      swap1\n      tag_26\n      swap2\n      swap1\n      tag_27\n      jump\t// in\n    tag_26:\n      tag_28\n      jump\t// in\n    tag_25:\n      stop\n        /* \"contracts/22-09-2022.sol\":100:124  address public myaddress */\n    tag_8:\n      tag_29\n      tag_30\n      jump\t// in\n    tag_29:\n      mload(0x40)\n      tag_31\n      swap2\n      swap1\n      tag_32\n      jump\t// in\n    tag_31:\n      mload(0x40)\n      dup1\n      swap2\n      sub\n      swap1\n      return\n        /* \"contracts/22-09-2022.sol\":78:93  int public num2 */\n    tag_10:\n      sload(0x01)\n      dup2\n      jump\t// out\n        /* \"contracts/22-09-2022.sol\":211:276  function check2(int _num2) public {\r... */\n    tag_16:\n        /* \"contracts/22-09-2022.sol\":263:268  _num2 */\n      dup1\n        /* \"contracts/22-09-2022.sol\":256:260  num2 */\n      0x01\n        /* \"contracts/22-09-2022.sol\":256:268  num2 = _num2 */\n      dup2\n      swap1\n      sstore\n      pop\n        /* \"contracts/22-09-2022.sol\":211:276  function check2(int _num2) public {\r... */\n      pop\n      jump\t// out\n        /* \"contracts/22-09-2022.sol\":55:71  uint public num1 */\n    tag_18:\n      sload(0x00)\n      dup2\n      jump\t// out\n        /* \"contracts/22-09-2022.sol\":133:203  function check1(uint _num1) public {\r... */\n    tag_24:\n        /* \"contracts/22-09-2022.sol\":190:195  _num1 */\n      dup1\n        /* \"contracts/22-09-2022.sol\":183:187  num1 */\n      0x00\n        /* \"contracts/22-09-2022.sol\":183:195  num1 = _num1 */\n      dup2\n      swap1\n      sstore\n      pop\n        /* \"contracts/22-09-2022.sol\":133:203  function check1(uint _num1) public {\r... */\n      pop\n      jump\t// out\n        /* \"contracts/22-09-2022.sol\":284:382  function getaddr(address _myaddr) public {\r... */\n    tag_28:\n        /* \"contracts/22-09-2022.sol\":350:360  msg.sender */\n      caller\n        /* \"contracts/22-09-2022.sol\":340:360  _myaddr = msg.sender */\n      swap1\n      pop\n        /* \"contracts/22-09-2022.sol\":284:382  function getaddr(address _myaddr) public {\r... */\n      pop\n      jump\t// out\n        /* \"contracts/22-09-2022.sol\":100:124  address public myaddress */\n    tag_30:\n      0x02\n      0x00\n      swap1\n      sload\n      swap1\n      0x0100\n      exp\n      swap1\n      div\n      0xffffffffffffffffffffffffffffffffffffffff\n      and\n      dup2\n      jump\t// out\n        /* \"#utility.yul\":7:146   */\n    tag_37:\n        /* \"#utility.yul\":53:58   */\n      0x00\n        /* \"#utility.yul\":91:97   */\n      dup2\n        /* \"#utility.yul\":78:98   */\n      calldataload\n        /* \"#utility.yul\":69:98   */\n      swap1\n      pop\n        /* \"#utility.yul\":107:140   */\n      tag_39\n        /* \"#utility.yul\":134:139   */\n      dup2\n        /* \"#utility.yul\":107:140   */\n      tag_40\n      jump\t// in\n    tag_39:\n        /* \"#utility.yul\":59:146   */\n      swap3\n      swap2\n      pop\n      pop\n      jump\t// out\n        /* \"#utility.yul\":152:289   */\n    tag_41:\n        /* \"#utility.yul\":197:202   */\n      0x00\n        /* \"#utility.yul\":235:241   */\n      dup2\n        /* \"#utility.yul\":222:242   */\n      calldataload\n        /* \"#utility.yul\":213:242   */\n      swap1\n      pop\n        /* \"#utility.yul\":251:283   */\n      tag_43\n        /* \"#utility.yul\":277:282   */\n      dup2\n        /* \"#utility.yul\":251:283   */\n      tag_44\n      jump\t// in\n    tag_43:\n        /* \"#utility.yul\":203:289   */\n      swap3\n      swap2\n      pop\n      pop\n      jump\t// out\n        /* \"#utility.yul\":295:434   */\n    tag_45:\n        /* \"#utility.yul\":341:346   */\n      0x00\n        /* \"#utility.yul\":379:385   */\n      dup2\n        /* \"#utility.yul\":366:386   */\n      calldataload\n        /* \"#utility.yul\":357:386   */\n      swap1\n      pop\n        /* \"#utility.yul\":395:428   */\n      tag_47\n        /* \"#utility.yul\":422:427   */\n      dup2\n        /* \"#utility.yul\":395:428   */\n      tag_48\n      jump\t// in\n    tag_47:\n        /* \"#utility.yul\":347:434   */\n      swap3\n      swap2\n      pop\n      pop\n      jump\t// out\n        /* \"#utility.yul\":440:769   */\n    tag_27:\n        /* \"#utility.yul\":499:505   */\n      0x00\n        /* \"#utility.yul\":548:550   */\n      0x20\n        /* \"#utility.yul\":536:545   */\n      dup3\n        /* \"#utility.yul\":527:534   */\n      dup5\n        /* \"#utility.yul\":523:546   */\n      sub\n        /* \"#utility.yul\":519:551   */\n      slt\n        /* \"#utility.yul\":516:518   */\n      iszero\n      tag_50\n      jumpi\n        /* \"#utility.yul\":554:633   */\n      tag_51\n      tag_52\n      jump\t// in\n    tag_51:\n        /* \"#utility.yul\":516:518   */\n    tag_50:\n        /* \"#utility.yul\":674:675   */\n      0x00\n        /* \"#utility.yul\":699:752   */\n      tag_53\n        /* \"#utility.yul\":744:751   */\n      dup5\n        /* \"#utility.yul\":735:741   */\n      dup3\n        /* \"#utility.yul\":724:733   */\n      dup6\n        /* \"#utility.yul\":720:742   */\n      add\n        /* \"#utility.yul\":699:752   */\n      tag_37\n      jump\t// in\n    tag_53:\n        /* \"#utility.yul\":689:752   */\n      swap2\n      pop\n        /* \"#utility.yul\":645:762   */\n      pop\n        /* \"#utility.yul\":506:769   */\n      swap3\n      swap2\n      pop\n      pop\n      jump\t// out\n        /* \"#utility.yul\":775:1102   */\n    tag_15:\n        /* \"#utility.yul\":833:839   */\n      0x00\n        /* \"#utility.yul\":882:884   */\n      0x20\n        /* \"#utility.yul\":870:879   */\n      dup3\n        /* \"#utility.yul\":861:868   */\n      dup5\n        /* \"#utility.yul\":857:880   */\n      sub\n        /* \"#utility.yul\":853:885   */\n      slt\n        /* \"#utility.yul\":850:852   */\n      iszero\n      tag_55\n      jumpi\n        /* \"#utility.yul\":888:967   */\n      tag_56\n      tag_52\n      jump\t// in\n    tag_56:\n        /* \"#utility.yul\":850:852   */\n    tag_55:\n        /* \"#utility.yul\":1008:1009   */\n      0x00\n        /* \"#utility.yul\":1033:1085   */\n      tag_57\n        /* \"#utility.yul\":1077:1084   */\n      dup5\n        /* \"#utility.yul\":1068:1074   */\n      dup3\n        /* \"#utility.yul\":1057:1066   */\n      dup6\n        /* \"#utility.yul\":1053:1075   */\n      add\n        /* \"#utility.yul\":1033:1085   */\n      tag_41\n      jump\t// in\n    tag_57:\n        /* \"#utility.yul\":1023:1085   */\n      swap2\n      pop\n        /* \"#utility.yul\":979:1095   */\n      pop\n        /* \"#utility.yul\":840:1102   */\n      swap3\n      swap2\n      pop\n      pop\n      jump\t// out\n        /* \"#utility.yul\":1108:1437   */\n    tag_23:\n        /* \"#utility.yul\":1167:1173   */\n      0x00\n        /* \"#utility.yul\":1216:1218   */\n      0x20\n        /* \"#utility.yul\":1204:1213   */\n      dup3\n        /* \"#utility.yul\":1195:1202   */\n      dup5\n        /* \"#utility.yul\":1191:1214   */\n      sub\n        /* \"#utility.yul\":1187:1219   */\n      slt\n        /* \"#utility.yul\":1184:1186   */\n      iszero\n      tag_59\n      jumpi\n        /* \"#utility.yul\":1222:1301   */\n      tag_60\n      tag_52\n      jump\t// in\n    tag_60:\n        /* \"#utility.yul\":1184:1186   */\n    tag_59:\n        /* \"#utility.yul\":1342:1343   */\n      0x00\n        /* \"#utility.yul\":1367:1420   */\n      tag_61\n        /* \"#utility.yul\":1412:1419   */\n      dup5\n        /* \"#utility.yul\":1403:1409   */\n      dup3\n        /* \"#utility.yul\":1392:1401   */\n      dup6\n        /* \"#utility.yul\":1388:1410   */\n      add\n        /* \"#utility.yul\":1367:1420   */\n      tag_45\n      jump\t// in\n    tag_61:\n        /* \"#utility.yul\":1357:1420   */\n      swap2\n      pop\n        /* \"#utility.yul\":1313:1430   */\n      pop\n        /* \"#utility.yul\":1174:1437   */\n      swap3\n      swap2\n      pop\n      pop\n      jump\t// out\n        /* \"#utility.yul\":1443:1561   */\n    tag_62:\n        /* \"#utility.yul\":1530:1554   */\n      tag_64\n        /* \"#utility.yul\":1548:1553   */\n      dup2\n        /* \"#utility.yul\":1530:1554   */\n      tag_65\n      jump\t// in\n    tag_64:\n        /* \"#utility.yul\":1525:1528   */\n      dup3\n        /* \"#utility.yul\":1518:1555   */\n      mstore\n        /* \"#utility.yul\":1508:1561   */\n      pop\n      pop\n      jump\t// out\n        /* \"#utility.yul\":1567:1682   */\n    tag_66:\n        /* \"#utility.yul\":1652:1675   */\n      tag_68\n        /* \"#utility.yul\":1669:1674   */\n      dup2\n        /* \"#utility.yul\":1652:1675   */\n      tag_69\n      jump\t// in\n    tag_68:\n        /* \"#utility.yul\":1647:1650   */\n      dup3\n        /* \"#utility.yul\":1640:1676   */\n      mstore\n        /* \"#utility.yul\":1630:1682   */\n      pop\n      pop\n      jump\t// out\n        /* \"#utility.yul\":1688:1806   */\n    tag_70:\n        /* \"#utility.yul\":1775:1799   */\n      tag_72\n        /* \"#utility.yul\":1793:1798   */\n      dup2\n        /* \"#utility.yul\":1775:1799   */\n      tag_73\n      jump\t// in\n    tag_72:\n        /* \"#utility.yul\":1770:1773   */\n      dup3\n        /* \"#utility.yul\":1763:1800   */\n      mstore\n        /* \"#utility.yul\":1753:1806   */\n      pop\n      pop\n      jump\t// out\n        /* \"#utility.yul\":1812:2034   */\n    tag_32:\n        /* \"#utility.yul\":1905:1909   */\n      0x00\n        /* \"#utility.yul\":1943:1945   */\n      0x20\n        /* \"#utility.yul\":1932:1941   */\n      dup3\n        /* \"#utility.yul\":1928:1946   */\n      add\n        /* \"#utility.yul\":1920:1946   */\n      swap1\n      pop\n        /* \"#utility.yul\":1956:2027   */\n      tag_75\n        /* \"#utility.yul\":2024:2025   */\n      0x00\n        /* \"#utility.yul\":2013:2022   */\n      dup4\n        /* \"#utility.yul\":2009:2026   */\n      add\n        /* \"#utility.yul\":2000:2006   */\n      dup5\n        /* \"#utility.yul\":1956:2027   */\n      tag_62\n      jump\t// in\n    tag_75:\n        /* \"#utility.yul\":1910:2034   */\n      swap3\n      swap2\n      pop\n      pop\n      jump\t// out\n        /* \"#utility.yul\":2040:2258   */\n    tag_12:\n        /* \"#utility.yul\":2131:2135   */\n      0x00\n        /* \"#utility.yul\":2169:2171   */\n      0x20\n        /* \"#utility.yul\":2158:2167   */\n      dup3\n        /* \"#utility.yul\":2154:2172   */\n      add\n        /* \"#utility.yul\":2146:2172   */\n      swap1\n      pop\n        /* \"#utility.yul\":2182:2251   */\n      tag_77\n        /* \"#utility.yul\":2248:2249   */\n      0x00\n        /* \"#utility.yul\":2237:2246   */\n      dup4\n        /* \"#utility.yul\":2233:2250   */\n      add\n        /* \"#utility.yul\":2224:2230   */\n      dup5\n        /* \"#utility.yul\":2182:2251   */\n      tag_66\n      jump\t// in\n    tag_77:\n        /* \"#utility.yul\":2136:2258   */\n      swap3\n      swap2\n      pop\n      pop\n      jump\t// out\n        /* \"#utility.yul\":2264:2486   */\n    tag_20:\n        /* \"#utility.yul\":2357:2361   */\n      0x00\n        /* \"#utility.yul\":2395:2397   */\n      0x20\n        /* \"#utility.yul\":2384:2393   */\n      dup3\n        /* \"#utility.yul\":2380:2398   */\n      add\n        /* \"#utility.yul\":2372:2398   */\n      swap1\n      pop\n        /* \"#utility.yul\":2408:2479   */\n      tag_79\n        /* \"#utility.yul\":2476:2477   */\n      0x00\n        /* \"#utility.yul\":2465:2474   */\n      dup4\n        /* \"#utility.yul\":2461:2478   */\n      add\n        /* \"#utility.yul\":2452:2458   */\n      dup5\n        /* \"#utility.yul\":2408:2479   */\n      tag_70\n      jump\t// in\n    tag_79:\n        /* \"#utility.yul\":2362:2486   */\n      swap3\n      swap2\n      pop\n      pop\n      jump\t// out\n        /* \"#utility.yul\":2573:2669   */\n    tag_65:\n        /* \"#utility.yul\":2610:2617   */\n      0x00\n        /* \"#utility.yul\":2639:2663   */\n      tag_83\n        /* \"#utility.yul\":2657:2662   */\n      dup3\n        /* \"#utility.yul\":2639:2663   */\n      tag_84\n      jump\t// in\n    tag_83:\n        /* \"#utility.yul\":2628:2663   */\n      swap1\n      pop\n        /* \"#utility.yul\":2618:2669   */\n      swap2\n      swap1\n      pop\n      jump\t// out\n        /* \"#utility.yul\":2675:2751   */\n    tag_69:\n        /* \"#utility.yul\":2711:2718   */\n      0x00\n        /* \"#utility.yul\":2740:2745   */\n      dup2\n        /* \"#utility.yul\":2729:2745   */\n      swap1\n      pop\n        /* \"#utility.yul\":2719:2751   */\n      swap2\n      swap1\n      pop\n      jump\t// out\n        /* \"#utility.yul\":2757:2883   */\n    tag_84:\n        /* \"#utility.yul\":2794:2801   */\n      0x00\n        /* \"#utility.yul\":2834:2876   */\n      0xffffffffffffffffffffffffffffffffffffffff\n        /* \"#utility.yul\":2827:2832   */\n      dup3\n        /* \"#utility.yul\":2823:2877   */\n      and\n        /* \"#utility.yul\":2812:2877   */\n      swap1\n      pop\n        /* \"#utility.yul\":2802:2883   */\n      swap2\n      swap1\n      pop\n      jump\t// out\n        /* \"#utility.yul\":2889:2966   */\n    tag_73:\n        /* \"#utility.yul\":2926:2933   */\n      0x00\n        /* \"#utility.yul\":2955:2960   */\n      dup2\n        /* \"#utility.yul\":2944:2960   */\n      swap1\n      pop\n        /* \"#utility.yul\":2934:2966   */\n      swap2\n      swap1\n      pop\n      jump\t// out\n        /* \"#utility.yul\":3095:3212   */\n    tag_52:\n        /* \"#utility.yul\":3204:3205   */\n      0x00\n        /* \"#utility.yul\":3201:3202   */\n      dup1\n        /* \"#utility.yul\":3194:3206   */\n      revert\n        /* \"#utility.yul\":3218:3340   */\n    tag_40:\n        /* \"#utility.yul\":3291:3315   */\n      tag_92\n        /* \"#utility.yul\":3309:3314   */\n      dup2\n        /* \"#utility.yul\":3291:3315   */\n      tag_65\n      jump\t// in\n    tag_92:\n        /* \"#utility.yul\":3284:3289   */\n      dup2\n        /* \"#utility.yul\":3281:3316   */\n      eq\n        /* \"#utility.yul\":3271:3273   */\n      tag_93\n      jumpi\n        /* \"#utility.yul\":3330:3331   */\n      0x00\n        /* \"#utility.yul\":3327:3328   */\n      dup1\n        /* \"#utility.yul\":3320:3332   */\n      revert\n        /* \"#utility.yul\":3271:3273   */\n    tag_93:\n        /* \"#utility.yul\":3261:3340   */\n      pop\n      jump\t// out\n        /* \"#utility.yul\":3346:3466   */\n    tag_44:\n        /* \"#utility.yul\":3418:3441   */\n      tag_95\n        /* \"#utility.yul\":3435:3440   */\n      dup2\n        /* \"#utility.yul\":3418:3441   */\n      tag_69\n      jump\t// in\n    tag_95:\n        /* \"#utility.yul\":3411:3416   */\n      dup2\n        /* \"#utility.yul\":3408:3442   */\n      eq\n        /* \"#utility.yul\":3398:3400   */\n      tag_96\n      jumpi\n        /* \"#utility.yul\":3456:3457   */\n      0x00\n        /* \"#utility.yul\":3453:3454   */\n      dup1\n        /* \"#utility.yul\":3446:3458   */\n      revert\n        /* \"#utility.yul\":3398:3400   */\n    tag_96:\n        /* \"#utility.yul\":3388:3466   */\n      pop\n      jump\t// out\n        /* \"#utility.yul\":3472:3594   */\n    tag_48:\n        /* \"#utility.yul\":3545:3569   */\n      tag_98\n        /* \"#utility.yul\":3563:3568   */\n      dup2\n        /* \"#utility.yul\":3545:3569   */\n      tag_73\n      jump\t// in\n    tag_98:\n        /* \"#utility.yul\":3538:3543   */\n      dup2\n        /* \"#utility.yul\":3535:3570   */\n      eq\n        /* \"#utility.yul\":3525:3527   */\n      tag_99\n      jumpi\n        /* \"#utility.yul\":3584:3585   */\n      0x00\n        /* \"#utility.yul\":3581:3582   */\n      dup1\n        /* \"#utility.yul\":3574:3586   */\n      revert\n        /* \"#utility.yul\":3525:3527   */\n    tag_99:\n        /* \"#utility.yul\":3515:3594   */\n      pop\n      jump\t// out\n\n    auxdata: 0xa264697066735822122070d52a1919e97da7aad7217c04ad58f378f4a2e102fec750c41ca55572e74ce964736f6c63430008050033\n}\n",
				"bytecode": {
					"linkReferences": {},
					"object": "608060405234801561001057600080fd5b5061036b806100206000396000f3fe608060405234801561001057600080fd5b50600436106100625760003560e01c806315d4266c1461006757806336cdcbc1146100855780633b9eac4b146100a157806346061579146100bf5780639e2da9d5146100db578063fcf814c3146100f7575b600080fd5b61006f610115565b60405161007c919061026f565b60405180910390f35b61009f600480360381019061009a91906101cd565b61011b565b005b6100a9610125565b6040516100b6919061028a565b60405180910390f35b6100d960048036038101906100d491906101fa565b61012b565b005b6100f560048036038101906100f091906101a0565b610135565b005b6100ff61013b565b60405161010c9190610254565b60405180910390f35b60015481565b8060018190555050565b60005481565b8060008190555050565b33905050565b600260009054906101000a900473ffffffffffffffffffffffffffffffffffffffff1681565b600081359050610170816102f0565b92915050565b60008135905061018581610307565b92915050565b60008135905061019a8161031e565b92915050565b6000602082840312156101b6576101b56102eb565b5b60006101c484828501610161565b91505092915050565b6000602082840312156101e3576101e26102eb565b5b60006101f184828501610176565b91505092915050565b6000602082840312156102105761020f6102eb565b5b600061021e8482850161018b565b91505092915050565b610230816102a5565b82525050565b61023f816102b7565b82525050565b61024e816102e1565b82525050565b60006020820190506102696000830184610227565b92915050565b60006020820190506102846000830184610236565b92915050565b600060208201905061029f6000830184610245565b92915050565b60006102b0826102c1565b9050919050565b6000819050919050565b600073ffffffffffffffffffffffffffffffffffffffff82169050919050565b6000819050919050565b600080fd5b6102f9816102a5565b811461030457600080fd5b50565b610310816102b7565b811461031b57600080fd5b50565b610327816102e1565b811461033257600080fd5b5056fea264697066735822122070d52a1919e97da7aad7217c04ad58f378f4a2e102fec750c41ca55572e74ce964736f6c63430008050033",
					"opcodes": "PUSH1 0x80 PUSH1 0x40 MSTORE CALLVALUE DUP1 ISZERO PUSH2 0x10 JUMPI PUSH1 0x0 DUP1 REVERT JUMPDEST POP PUSH2 0x36B DUP1 PUSH2 0x20 PUSH1 0x0 CODECOPY PUSH1 0x0 RETURN INVALID PUSH1 0x80 PUSH1 0x40 MSTORE CALLVALUE DUP1 ISZERO PUSH2 0x10 JUMPI PUSH1 0x0 DUP1 REVERT JUMPDEST POP PUSH1 0x4 CALLDATASIZE LT PUSH2 0x62 JUMPI PUSH1 0x0 CALLDATALOAD PUSH1 0xE0 SHR DUP1 PUSH4 0x15D4266C EQ PUSH2 0x67 JUMPI DUP1 PUSH4 0x36CDCBC1 EQ PUSH2 0x85 JUMPI DUP1 PUSH4 0x3B9EAC4B EQ PUSH2 0xA1 JUMPI DUP1 PUSH4 0x46061579 EQ PUSH2 0xBF JUMPI DUP1 PUSH4 0x9E2DA9D5 EQ PUSH2 0xDB JUMPI DUP1 PUSH4 0xFCF814C3 EQ PUSH2 0xF7 JUMPI JUMPDEST PUSH1 0x0 DUP1 REVERT JUMPDEST PUSH2 0x6F PUSH2 0x115 JUMP JUMPDEST PUSH1 0x40 MLOAD PUSH2 0x7C SWAP2 SWAP1 PUSH2 0x26F JUMP JUMPDEST PUSH1 0x40 MLOAD DUP1 SWAP2 SUB SWAP1 RETURN JUMPDEST PUSH2 0x9F PUSH1 0x4 DUP1 CALLDATASIZE SUB DUP2 ADD SWAP1 PUSH2 0x9A SWAP2 SWAP1 PUSH2 0x1CD JUMP JUMPDEST PUSH2 0x11B JUMP JUMPDEST STOP JUMPDEST PUSH2 0xA9 PUSH2 0x125 JUMP JUMPDEST PUSH1 0x40 MLOAD PUSH2 0xB6 SWAP2 SWAP1 PUSH2 0x28A JUMP JUMPDEST PUSH1 0x40 MLOAD DUP1 SWAP2 SUB SWAP1 RETURN JUMPDEST PUSH2 0xD9 PUSH1 0x4 DUP1 CALLDATASIZE SUB DUP2 ADD SWAP1 PUSH2 0xD4 SWAP2 SWAP1 PUSH2 0x1FA JUMP JUMPDEST PUSH2 0x12B JUMP JUMPDEST STOP JUMPDEST PUSH2 0xF5 PUSH1 0x4 DUP1 CALLDATASIZE SUB DUP2 ADD SWAP1 PUSH2 0xF0 SWAP2 SWAP1 PUSH2 0x1A0 JUMP JUMPDEST PUSH2 0x135 JUMP JUMPDEST STOP JUMPDEST PUSH2 0xFF PUSH2 0x13B JUMP JUMPDEST PUSH1 0x40 MLOAD PUSH2 0x10C SWAP2 SWAP1 PUSH2 0x254 JUMP JUMPDEST PUSH1 0x40 MLOAD DUP1 SWAP2 SUB SWAP1 RETURN JUMPDEST PUSH1 0x1 SLOAD DUP2 JUMP JUMPDEST DUP1 PUSH1 0x1 DUP2 SWAP1 SSTORE POP POP JUMP JUMPDEST PUSH1 0x0 SLOAD DUP2 JUMP JUMPDEST DUP1 PUSH1 0x0 DUP2 SWAP1 SSTORE POP POP JUMP JUMPDEST CALLER SWAP1 POP POP JUMP JUMPDEST PUSH1 0x2 PUSH1 0x0 SWAP1 SLOAD SWAP1 PUSH2 0x100 EXP SWAP1 DIV PUSH20 0xFFFFFFFFFFFFFFFFFFFFFFFFFFFFFFFFFFFFFFFF AND DUP2 JUMP JUMPDEST PUSH1 0x0 DUP2 CALLDATALOAD SWAP1 POP PUSH2 0x170 DUP2 PUSH2 0x2F0 JUMP JUMPDEST SWAP3 SWAP2 POP POP JUMP JUMPDEST PUSH1 0x0 DUP2 CALLDATALOAD SWAP1 POP PUSH2 0x185 DUP2 PUSH2 0x307 JUMP JUMPDEST SWAP3 SWAP2 POP POP JUMP JUMPDEST PUSH1 0x0 DUP2 CALLDATALOAD SWAP1 POP PUSH2 0x19A DUP2 PUSH2 0x31E JUMP JUMPDEST SWAP3 SWAP2 POP POP JUMP JUMPDEST PUSH1 0x0 PUSH1 0x20 DUP3 DUP5 SUB SLT ISZERO PUSH2 0x1B6 JUMPI PUSH2 0x1B5 PUSH2 0x2EB JUMP JUMPDEST JUMPDEST PUSH1 0x0 PUSH2 0x1C4 DUP5 DUP3 DUP6 ADD PUSH2 0x161 JUMP JUMPDEST SWAP2 POP POP SWAP3 SWAP2 POP POP JUMP JUMPDEST PUSH1 0x0 PUSH1 0x20 DUP3 DUP5 SUB SLT ISZERO PUSH2 0x1E3 JUMPI PUSH2 0x1E2 PUSH2 0x2EB JUMP JUMPDEST JUMPDEST PUSH1 0x0 PUSH2 0x1F1 DUP5 DUP3 DUP6 ADD PUSH2 0x176 JUMP JUMPDEST SWAP2 POP POP SWAP3 SWAP2 POP POP JUMP JUMPDEST PUSH1 0x0 PUSH1 0x20 DUP3 DUP5 SUB SLT ISZERO PUSH2 0x210 JUMPI PUSH2 0x20F PUSH2 0x2EB JUMP JUMPDEST JUMPDEST PUSH1 0x0 PUSH2 0x21E DUP5 DUP3 DUP6 ADD PUSH2 0x18B JUMP JUMPDEST SWAP2 POP POP SWAP3 SWAP2 POP POP JUMP JUMPDEST PUSH2 0x230 DUP2 PUSH2 0x2A5 JUMP JUMPDEST DUP3 MSTORE POP POP JUMP JUMPDEST PUSH2 0x23F DUP2 PUSH2 0x2B7 JUMP JUMPDEST DUP3 MSTORE POP POP JUMP JUMPDEST PUSH2 0x24E DUP2 PUSH2 0x2E1 JUMP JUMPDEST DUP3 MSTORE POP POP JUMP JUMPDEST PUSH1 0x0 PUSH1 0x20 DUP3 ADD SWAP1 POP PUSH2 0x269 PUSH1 0x0 DUP4 ADD DUP5 PUSH2 0x227 JUMP JUMPDEST SWAP3 SWAP2 POP POP JUMP JUMPDEST PUSH1 0x0 PUSH1 0x20 DUP3 ADD SWAP1 POP PUSH2 0x284 PUSH1 0x0 DUP4 ADD DUP5 PUSH2 0x236 JUMP JUMPDEST SWAP3 SWAP2 POP POP JUMP JUMPDEST PUSH1 0x0 PUSH1 0x20 DUP3 ADD SWAP1 POP PUSH2 0x29F PUSH1 0x0 DUP4 ADD DUP5 PUSH2 0x245 JUMP JUMPDEST SWAP3 SWAP2 POP POP JUMP JUMPDEST PUSH1 0x0 PUSH2 0x2B0 DUP3 PUSH2 0x2C1 JUMP JUMPDEST SWAP1 POP SWAP2 SWAP1 POP JUMP JUMPDEST PUSH1 0x0 DUP2 SWAP1 POP SWAP2 SWAP1 POP JUMP JUMPDEST PUSH1 0x0 PUSH20 0xFFFFFFFFFFFFFFFFFFFFFFFFFFFFFFFFFFFFFFFF DUP3 AND SWAP1 POP SWAP2 SWAP1 POP JUMP JUMPDEST PUSH1 0x0 DUP2 SWAP1 POP SWAP2 SWAP1 POP JUMP JUMPDEST PUSH1 0x0 DUP1 REVERT JUMPDEST PUSH2 0x2F9 DUP2 PUSH2 0x2A5 JUMP JUMPDEST DUP2 EQ PUSH2 0x304 JUMPI PUSH1 0x0 DUP1 REVERT JUMPDEST POP JUMP JUMPDEST PUSH2 0x310 DUP2 PUSH2 0x2B7 JUMP JUMPDEST DUP2 EQ PUSH2 0x31B JUMPI PUSH1 0x0 DUP1 REVERT JUMPDEST POP JUMP JUMPDEST PUSH2 0x327 DUP2 PUSH2 0x2E1 JUMP JUMPDEST DUP2 EQ PUSH2 0x332 JUMPI PUSH1 0x0 DUP1 REVERT JUMPDEST POP JUMP INVALID LOG2 PUSH5 0x6970667358 0x22 SLT KECCAK256 PUSH17 0xD52A1919E97DA7AAD7217C04AD58F378F4 LOG2 0xE1 MUL INVALID 0xC7 POP 0xC4 SHR 0xA5 SSTORE PUSH19 0xE74CE964736F6C634300080500330000000000 "
				},
				"gasEstimates": {
					"creation": {
						"codeDepositCost": "175000",
						"executionCost": "220",
						"totalCost": "175220"
					},
					"external": {
						"check1(uint256)": "22564",
						"check2(int256)": "22520",
						"getaddr(address)": "528",
						"myaddress()": "2602",
						"num1()": "2451",
						"num2()": "2407"
					}
				},
				"methodIdentifiers": {
					"check1(uint256)": "46061579",
					"check2(int256)": "36cdcbc1",
					"getaddr(address)": "9e2da9d5",
					"myaddress()": "fcf814c3",
					"num1()": "3b9eac4b",
					"num2()": "15d4266c"
				}
			},
			"storageLayout": {
				"storage": [
					{
						"astId": 3,
						"contract": "contracts/22-09-2022.sol:lectureFour",
						"label": "num1",
						"offset": 0,
						"slot": "0",
						"type": "t_uint256"
					},
					{
						"astId": 5,
						"contract": "contracts/22-09-2022.sol:lectureFour",
						"label": "num2",
						"offset": 0,
						"slot": "1",
						"type": "t_int256"
					},
					{
						"astId": 7,
						"contract": "contracts/22-09-2022.sol:lectureFour",
						"label": "myaddress",
						"offset": 0,
						"slot": "2",
						"type": "t_address"
					}
				],
				"types": {
					"t_address": {
						"encoding": "inplace",
						"label": "address",
						"numberOfBytes": "20"
					},
					"t_int256": {
						"encoding": "inplace",
						"label": "int256",
						"numberOfBytes": "32"
					},
					"t_uint256": {
						"encoding": "inplace",
						"label": "uint256",
						"numberOfBytes": "32"
					}
				}
			},
			"userdoc": {
				"kind": "user",
				"methods": {},
				"version": 1
			}
		}
	}
}