{
	"contracts/task 1.sol": {
		"Mapping": {
			"abi": [
				{
					"inputs": [
						{
							"internalType": "uint256",
							"name": "_addr",
							"type": "uint256"
						},
						{
							"internalType": "uint256",
							"name": "_color",
							"type": "uint256"
						}
					],
					"name": "test",
					"outputs": [
						{
							"internalType": "string",
							"name": "",
							"type": "string"
						}
					],
					"stateMutability": "nonpayable",
					"type": "function"
				},
				{
					"inputs": [
						{
							"internalType": "uint256",
							"name": "",
							"type": "uint256"
						}
					],
					"name": "testmapping",
					"outputs": [
						{
							"internalType": "uint256",
							"name": "",
							"type": "uint256"
						}
					],
					"stateMutability": "view",
					"type": "function"
				}
			],
			"devdoc": {
				"kind": "dev",
				"methods": {},
				"version": 1
			},
			"evm": {
				"assembly": "    /* \"contracts/task 1.sol\":27:396  contract Mapping {\r... */\n  mstore(0x40, 0x80)\n  callvalue\n  dup1\n  iszero\n  tag_1\n  jumpi\n  0x00\n  dup1\n  revert\ntag_1:\n  pop\n  dataSize(sub_0)\n  dup1\n  dataOffset(sub_0)\n  0x00\n  codecopy\n  0x00\n  return\nstop\n\nsub_0: assembly {\n        /* \"contracts/task 1.sol\":27:396  contract Mapping {\r... */\n      mstore(0x40, 0x80)\n      callvalue\n      dup1\n      iszero\n      tag_1\n      jumpi\n      0x00\n      dup1\n      revert\n    tag_1:\n      pop\n      jumpi(tag_2, lt(calldatasize, 0x04))\n      shr(0xe0, calldataload(0x00))\n      dup1\n      0x22c8c969\n      eq\n      tag_3\n      jumpi\n      dup1\n      0xeb8ac921\n      eq\n      tag_4\n      jumpi\n    tag_2:\n      0x00\n      dup1\n      revert\n        /* \"contracts/task 1.sol\":53:93  mapping(uint => uint) public testmapping */\n    tag_3:\n      tag_5\n      0x04\n      dup1\n      calldatasize\n      sub\n      dup2\n      add\n      swap1\n      tag_6\n      swap2\n      swap1\n      tag_7\n      jump\t// in\n    tag_6:\n      tag_8\n      jump\t// in\n    tag_5:\n      mload(0x40)\n      tag_9\n      swap2\n      swap1\n      tag_10\n      jump\t// in\n    tag_9:\n      mload(0x40)\n      dup1\n      swap2\n      sub\n      swap1\n      return\n        /* \"contracts/task 1.sol\":102:222  function test(uint _addr, uint _color) public returns(string memory)\r... */\n    tag_4:\n      tag_11\n      0x04\n      dup1\n      calldatasize\n      sub\n      dup2\n      add\n      swap1\n      tag_12\n      swap2\n      swap1\n      tag_13\n      jump\t// in\n    tag_12:\n      tag_14\n      jump\t// in\n    tag_11:\n      mload(0x40)\n      tag_15\n      swap2\n      swap1\n      tag_16\n      jump\t// in\n    tag_15:\n      mload(0x40)\n      dup1\n      swap2\n      sub\n      swap1\n      return\n        /* \"contracts/task 1.sol\":53:93  mapping(uint => uint) public testmapping */\n    tag_8:\n      mstore(0x20, 0x00)\n      dup1\n      0x00\n      mstore\n      keccak256(0x00, 0x40)\n      0x00\n      swap2\n      pop\n      swap1\n      pop\n      sload\n      dup2\n      jump\t// out\n        /* \"contracts/task 1.sol\":102:222  function test(uint _addr, uint _color) public returns(string memory)\r... */\n    tag_14:\n        /* \"contracts/task 1.sol\":156:169  string memory */\n      0x60\n        /* \"contracts/task 1.sol\":208:214  _color */\n      dup2\n        /* \"contracts/task 1.sol\":187:198  testmapping */\n      0x00\n        /* \"contracts/task 1.sol\":187:205  testmapping[_addr] */\n      dup1\n        /* \"contracts/task 1.sol\":199:204  _addr */\n      dup6\n        /* \"contracts/task 1.sol\":187:205  testmapping[_addr] */\n      dup2\n      mstore\n      0x20\n      add\n      swap1\n      dup2\n      mstore\n      0x20\n      add\n      0x00\n      keccak256\n        /* \"contracts/task 1.sol\":187:214  testmapping[_addr] = _color */\n      dup2\n      swap1\n      sstore\n      pop\n        /* \"contracts/task 1.sol\":102:222  function test(uint _addr, uint _color) public returns(string memory)\r... */\n      swap3\n      swap2\n      pop\n      pop\n      jump\t// out\n        /* \"#utility.yul\":7:146   */\n    tag_19:\n        /* \"#utility.yul\":53:58   */\n      0x00\n        /* \"#utility.yul\":91:97   */\n      dup2\n        /* \"#utility.yul\":78:98   */\n      calldataload\n        /* \"#utility.yul\":69:98   */\n      swap1\n      pop\n        /* \"#utility.yul\":107:140   */\n      tag_21\n        /* \"#utility.yul\":134:139   */\n      dup2\n        /* \"#utility.yul\":107:140   */\n      tag_22\n      jump\t// in\n    tag_21:\n        /* \"#utility.yul\":59:146   */\n      swap3\n      swap2\n      pop\n      pop\n      jump\t// out\n        /* \"#utility.yul\":152:481   */\n    tag_7:\n        /* \"#utility.yul\":211:217   */\n      0x00\n        /* \"#utility.yul\":260:262   */\n      0x20\n        /* \"#utility.yul\":248:257   */\n      dup3\n        /* \"#utility.yul\":239:246   */\n      dup5\n        /* \"#utility.yul\":235:258   */\n      sub\n        /* \"#utility.yul\":231:263   */\n      slt\n        /* \"#utility.yul\":228:230   */\n      iszero\n      tag_24\n      jumpi\n        /* \"#utility.yul\":266:345   */\n      tag_25\n      tag_26\n      jump\t// in\n    tag_25:\n        /* \"#utility.yul\":228:230   */\n    tag_24:\n        /* \"#utility.yul\":386:387   */\n      0x00\n        /* \"#utility.yul\":411:464   */\n      tag_27\n        /* \"#utility.yul\":456:463   */\n      dup5\n        /* \"#utility.yul\":447:453   */\n      dup3\n        /* \"#utility.yul\":436:445   */\n      dup6\n        /* \"#utility.yul\":432:454   */\n      add\n        /* \"#utility.yul\":411:464   */\n      tag_19\n      jump\t// in\n    tag_27:\n        /* \"#utility.yul\":401:464   */\n      swap2\n      pop\n        /* \"#utility.yul\":357:474   */\n      pop\n        /* \"#utility.yul\":218:481   */\n      swap3\n      swap2\n      pop\n      pop\n      jump\t// out\n        /* \"#utility.yul\":487:961   */\n    tag_13:\n        /* \"#utility.yul\":555:561   */\n      0x00\n        /* \"#utility.yul\":563:569   */\n      dup1\n        /* \"#utility.yul\":612:614   */\n      0x40\n        /* \"#utility.yul\":600:609   */\n      dup4\n        /* \"#utility.yul\":591:598   */\n      dup6\n        /* \"#utility.yul\":587:610   */\n      sub\n        /* \"#utility.yul\":583:615   */\n      slt\n        /* \"#utility.yul\":580:582   */\n      iszero\n      tag_29\n      jumpi\n        /* \"#utility.yul\":618:697   */\n      tag_30\n      tag_26\n      jump\t// in\n    tag_30:\n        /* \"#utility.yul\":580:582   */\n    tag_29:\n        /* \"#utility.yul\":738:739   */\n      0x00\n        /* \"#utility.yul\":763:816   */\n      tag_31\n        /* \"#utility.yul\":808:815   */\n      dup6\n        /* \"#utility.yul\":799:805   */\n      dup3\n        /* \"#utility.yul\":788:797   */\n      dup7\n        /* \"#utility.yul\":784:806   */\n      add\n        /* \"#utility.yul\":763:816   */\n      tag_19\n      jump\t// in\n    tag_31:\n        /* \"#utility.yul\":753:816   */\n      swap3\n      pop\n        /* \"#utility.yul\":709:826   */\n      pop\n        /* \"#utility.yul\":865:867   */\n      0x20\n        /* \"#utility.yul\":891:944   */\n      tag_32\n        /* \"#utility.yul\":936:943   */\n      dup6\n        /* \"#utility.yul\":927:933   */\n      dup3\n        /* \"#utility.yul\":916:925   */\n      dup7\n        /* \"#utility.yul\":912:934   */\n      add\n        /* \"#utility.yul\":891:944   */\n      tag_19\n      jump\t// in\n    tag_32:\n        /* \"#utility.yul\":881:944   */\n      swap2\n      pop\n        /* \"#utility.yul\":836:954   */\n      pop\n        /* \"#utility.yul\":570:961   */\n      swap3\n      pop\n      swap3\n      swap1\n      pop\n      jump\t// out\n        /* \"#utility.yul\":967:1331   */\n    tag_33:\n        /* \"#utility.yul\":1055:1058   */\n      0x00\n        /* \"#utility.yul\":1083:1122   */\n      tag_35\n        /* \"#utility.yul\":1116:1121   */\n      dup3\n        /* \"#utility.yul\":1083:1122   */\n      tag_36\n      jump\t// in\n    tag_35:\n        /* \"#utility.yul\":1138:1209   */\n      tag_37\n        /* \"#utility.yul\":1202:1208   */\n      dup2\n        /* \"#utility.yul\":1197:1200   */\n      dup6\n        /* \"#utility.yul\":1138:1209   */\n      tag_38\n      jump\t// in\n    tag_37:\n        /* \"#utility.yul\":1131:1209   */\n      swap4\n      pop\n        /* \"#utility.yul\":1218:1270   */\n      tag_39\n        /* \"#utility.yul\":1263:1269   */\n      dup2\n        /* \"#utility.yul\":1258:1261   */\n      dup6\n        /* \"#utility.yul\":1251:1255   */\n      0x20\n        /* \"#utility.yul\":1244:1249   */\n      dup7\n        /* \"#utility.yul\":1240:1256   */\n      add\n        /* \"#utility.yul\":1218:1270   */\n      tag_40\n      jump\t// in\n    tag_39:\n        /* \"#utility.yul\":1295:1324   */\n      tag_41\n        /* \"#utility.yul\":1317:1323   */\n      dup2\n        /* \"#utility.yul\":1295:1324   */\n      tag_42\n      jump\t// in\n    tag_41:\n        /* \"#utility.yul\":1290:1293   */\n      dup5\n        /* \"#utility.yul\":1286:1325   */\n      add\n        /* \"#utility.yul\":1279:1325   */\n      swap2\n      pop\n        /* \"#utility.yul\":1059:1331   */\n      pop\n      swap3\n      swap2\n      pop\n      pop\n      jump\t// out\n        /* \"#utility.yul\":1337:1455   */\n    tag_43:\n        /* \"#utility.yul\":1424:1448   */\n      tag_45\n        /* \"#utility.yul\":1442:1447   */\n      dup2\n        /* \"#utility.yul\":1424:1448   */\n      tag_46\n      jump\t// in\n    tag_45:\n        /* \"#utility.yul\":1419:1422   */\n      dup3\n        /* \"#utility.yul\":1412:1449   */\n      mstore\n        /* \"#utility.yul\":1402:1455   */\n      pop\n      pop\n      jump\t// out\n        /* \"#utility.yul\":1461:1774   */\n    tag_16:\n        /* \"#utility.yul\":1574:1578   */\n      0x00\n        /* \"#utility.yul\":1612:1614   */\n      0x20\n        /* \"#utility.yul\":1601:1610   */\n      dup3\n        /* \"#utility.yul\":1597:1615   */\n      add\n        /* \"#utility.yul\":1589:1615   */\n      swap1\n      pop\n        /* \"#utility.yul\":1661:1670   */\n      dup2\n        /* \"#utility.yul\":1655:1659   */\n      dup2\n        /* \"#utility.yul\":1651:1671   */\n      sub\n        /* \"#utility.yul\":1647:1648   */\n      0x00\n        /* \"#utility.yul\":1636:1645   */\n      dup4\n        /* \"#utility.yul\":1632:1649   */\n      add\n        /* \"#utility.yul\":1625:1672   */\n      mstore\n        /* \"#utility.yul\":1689:1767   */\n      tag_48\n        /* \"#utility.yul\":1762:1766   */\n      dup2\n        /* \"#utility.yul\":1753:1759   */\n      dup5\n        /* \"#utility.yul\":1689:1767   */\n      tag_33\n      jump\t// in\n    tag_48:\n        /* \"#utility.yul\":1681:1767   */\n      swap1\n      pop\n        /* \"#utility.yul\":1579:1774   */\n      swap3\n      swap2\n      pop\n      pop\n      jump\t// out\n        /* \"#utility.yul\":1780:2002   */\n    tag_10:\n        /* \"#utility.yul\":1873:1877   */\n      0x00\n        /* \"#utility.yul\":1911:1913   */\n      0x20\n        /* \"#utility.yul\":1900:1909   */\n      dup3\n        /* \"#utility.yul\":1896:1914   */\n      add\n        /* \"#utility.yul\":1888:1914   */\n      swap1\n      pop\n        /* \"#utility.yul\":1924:1995   */\n      tag_50\n        /* \"#utility.yul\":1992:1993   */\n      0x00\n        /* \"#utility.yul\":1981:1990   */\n      dup4\n        /* \"#utility.yul\":1977:1994   */\n      add\n        /* \"#utility.yul\":1968:1974   */\n      dup5\n        /* \"#utility.yul\":1924:1995   */\n      tag_43\n      jump\t// in\n    tag_50:\n        /* \"#utility.yul\":1878:2002   */\n      swap3\n      swap2\n      pop\n      pop\n      jump\t// out\n        /* \"#utility.yul\":2089:2188   */\n    tag_36:\n        /* \"#utility.yul\":2141:2147   */\n      0x00\n        /* \"#utility.yul\":2175:2180   */\n      dup2\n        /* \"#utility.yul\":2169:2181   */\n      mload\n        /* \"#utility.yul\":2159:2181   */\n      swap1\n      pop\n        /* \"#utility.yul\":2148:2188   */\n      swap2\n      swap1\n      pop\n      jump\t// out\n        /* \"#utility.yul\":2194:2363   */\n    tag_38:\n        /* \"#utility.yul\":2278:2289   */\n      0x00\n        /* \"#utility.yul\":2312:2318   */\n      dup3\n        /* \"#utility.yul\":2307:2310   */\n      dup3\n        /* \"#utility.yul\":2300:2319   */\n      mstore\n        /* \"#utility.yul\":2352:2356   */\n      0x20\n        /* \"#utility.yul\":2347:2350   */\n      dup3\n        /* \"#utility.yul\":2343:2357   */\n      add\n        /* \"#utility.yul\":2328:2357   */\n      swap1\n      pop\n        /* \"#utility.yul\":2290:2363   */\n      swap3\n      swap2\n      pop\n      pop\n      jump\t// out\n        /* \"#utility.yul\":2369:2446   */\n    tag_46:\n        /* \"#utility.yul\":2406:2413   */\n      0x00\n        /* \"#utility.yul\":2435:2440   */\n      dup2\n        /* \"#utility.yul\":2424:2440   */\n      swap1\n      pop\n        /* \"#utility.yul\":2414:2446   */\n      swap2\n      swap1\n      pop\n      jump\t// out\n        /* \"#utility.yul\":2452:2759   */\n    tag_40:\n        /* \"#utility.yul\":2520:2521   */\n      0x00\n        /* \"#utility.yul\":2530:2643   */\n    tag_57:\n        /* \"#utility.yul\":2544:2550   */\n      dup4\n        /* \"#utility.yul\":2541:2542   */\n      dup2\n        /* \"#utility.yul\":2538:2551   */\n      lt\n        /* \"#utility.yul\":2530:2643   */\n      iszero\n      tag_59\n      jumpi\n        /* \"#utility.yul\":2629:2630   */\n      dup1\n        /* \"#utility.yul\":2624:2627   */\n      dup3\n        /* \"#utility.yul\":2620:2631   */\n      add\n        /* \"#utility.yul\":2614:2632   */\n      mload\n        /* \"#utility.yul\":2610:2611   */\n      dup2\n        /* \"#utility.yul\":2605:2608   */\n      dup5\n        /* \"#utility.yul\":2601:2612   */\n      add\n        /* \"#utility.yul\":2594:2633   */\n      mstore\n        /* \"#utility.yul\":2566:2568   */\n      0x20\n        /* \"#utility.yul\":2563:2564   */\n      dup2\n        /* \"#utility.yul\":2559:2569   */\n      add\n        /* \"#utility.yul\":2554:2569   */\n      swap1\n      pop\n        /* \"#utility.yul\":2530:2643   */\n      jump(tag_57)\n    tag_59:\n        /* \"#utility.yul\":2661:2667   */\n      dup4\n        /* \"#utility.yul\":2658:2659   */\n      dup2\n        /* \"#utility.yul\":2655:2668   */\n      gt\n        /* \"#utility.yul\":2652:2654   */\n      iszero\n      tag_60\n      jumpi\n        /* \"#utility.yul\":2741:2742   */\n      0x00\n        /* \"#utility.yul\":2732:2738   */\n      dup5\n        /* \"#utility.yul\":2727:2730   */\n      dup5\n        /* \"#utility.yul\":2723:2739   */\n      add\n        /* \"#utility.yul\":2716:2743   */\n      mstore\n        /* \"#utility.yul\":2652:2654   */\n    tag_60:\n        /* \"#utility.yul\":2501:2759   */\n      pop\n      pop\n      pop\n      pop\n      jump\t// out\n        /* \"#utility.yul\":2888:3005   */\n    tag_26:\n        /* \"#utility.yul\":2997:2998   */\n      0x00\n        /* \"#utility.yul\":2994:2995   */\n      dup1\n        /* \"#utility.yul\":2987:2999   */\n      revert\n        /* \"#utility.yul\":3011:3113   */\n    tag_42:\n        /* \"#utility.yul\":3052:3058   */\n      0x00\n        /* \"#utility.yul\":3103:3105   */\n      0x1f\n        /* \"#utility.yul\":3099:3106   */\n      not\n        /* \"#utility.yul\":3094:3096   */\n      0x1f\n        /* \"#utility.yul\":3087:3092   */\n      dup4\n        /* \"#utility.yul\":3083:3097   */\n      add\n        /* \"#utility.yul\":3079:3107   */\n      and\n        /* \"#utility.yul\":3069:3107   */\n      swap1\n      pop\n        /* \"#utility.yul\":3059:3113   */\n      swap2\n      swap1\n      pop\n      jump\t// out\n        /* \"#utility.yul\":3119:3241   */\n    tag_22:\n        /* \"#utility.yul\":3192:3216   */\n      tag_66\n        /* \"#utility.yul\":3210:3215   */\n      dup2\n        /* \"#utility.yul\":3192:3216   */\n      tag_46\n      jump\t// in\n    tag_66:\n        /* \"#utility.yul\":3185:3190   */\n      dup2\n        /* \"#utility.yul\":3182:3217   */\n      eq\n        /* \"#utility.yul\":3172:3174   */\n      tag_67\n      jumpi\n        /* \"#utility.yul\":3231:3232   */\n      0x00\n        /* \"#utility.yul\":3228:3229   */\n      dup1\n        /* \"#utility.yul\":3221:3233   */\n      revert\n        /* \"#utility.yul\":3172:3174   */\n    tag_67:\n        /* \"#utility.yul\":3162:3241   */\n      pop\n      jump\t// out\n\n    auxdata: 0xa26469706673582212202dd9c8b7d3cbf5b96309e65f076ffe3c5cbb003136b13c777bec20aa17a3eb8164736f6c63430008050033\n}\n",
				"bytecode": {
					"linkReferences": {},
					"object": "608060405234801561001057600080fd5b50610295806100206000396000f3fe608060405234801561001057600080fd5b50600436106100365760003560e01c806322c8c9691461003b578063eb8ac9211461006b575b600080fd5b610055600480360381019061005091906100e7565b61009b565b60405161006291906101be565b60405180910390f35b61008560048036038101906100809190610114565b6100b3565b604051610092919061019c565b60405180910390f35b60006020528060005260406000206000915090505481565b6060816000808581526020019081526020016000208190555092915050565b6000813590506100e181610248565b92915050565b6000602082840312156100fd576100fc610232565b5b600061010b848285016100d2565b91505092915050565b6000806040838503121561012b5761012a610232565b5b6000610139858286016100d2565b925050602061014a858286016100d2565b9150509250929050565b600061015f826101d9565b61016981856101e4565b93506101798185602086016101ff565b61018281610237565b840191505092915050565b610196816101f5565b82525050565b600060208201905081810360008301526101b68184610154565b905092915050565b60006020820190506101d3600083018461018d565b92915050565b600081519050919050565b600082825260208201905092915050565b6000819050919050565b60005b8381101561021d578082015181840152602081019050610202565b8381111561022c576000848401525b50505050565b600080fd5b6000601f19601f8301169050919050565b610251816101f5565b811461025c57600080fd5b5056fea26469706673582212202dd9c8b7d3cbf5b96309e65f076ffe3c5cbb003136b13c777bec20aa17a3eb8164736f6c63430008050033",
					"opcodes": "PUSH1 0x80 PUSH1 0x40 MSTORE CALLVALUE DUP1 ISZERO PUSH2 0x10 JUMPI PUSH1 0x0 DUP1 REVERT JUMPDEST POP PUSH2 0x295 DUP1 PUSH2 0x20 PUSH1 0x0 CODECOPY PUSH1 0x0 RETURN INVALID PUSH1 0x80 PUSH1 0x40 MSTORE CALLVALUE DUP1 ISZERO PUSH2 0x10 JUMPI PUSH1 0x0 DUP1 REVERT JUMPDEST POP PUSH1 0x4 CALLDATASIZE LT PUSH2 0x36 JUMPI PUSH1 0x0 CALLDATALOAD PUSH1 0xE0 SHR DUP1 PUSH4 0x22C8C969 EQ PUSH2 0x3B JUMPI DUP1 PUSH4 0xEB8AC921 EQ PUSH2 0x6B JUMPI JUMPDEST PUSH1 0x0 DUP1 REVERT JUMPDEST PUSH2 0x55 PUSH1 0x4 DUP1 CALLDATASIZE SUB DUP2 ADD SWAP1 PUSH2 0x50 SWAP2 SWAP1 PUSH2 0xE7 JUMP JUMPDEST PUSH2 0x9B JUMP JUMPDEST PUSH1 0x40 MLOAD PUSH2 0x62 SWAP2 SWAP1 PUSH2 0x1BE JUMP JUMPDEST PUSH1 0x40 MLOAD DUP1 SWAP2 SUB SWAP1 RETURN JUMPDEST PUSH2 0x85 PUSH1 0x4 DUP1 CALLDATASIZE SUB DUP2 ADD SWAP1 PUSH2 0x80 SWAP2 SWAP1 PUSH2 0x114 JUMP JUMPDEST PUSH2 0xB3 JUMP JUMPDEST PUSH1 0x40 MLOAD PUSH2 0x92 SWAP2 SWAP1 PUSH2 0x19C JUMP JUMPDEST PUSH1 0x40 MLOAD DUP1 SWAP2 SUB SWAP1 RETURN JUMPDEST PUSH1 0x0 PUSH1 0x20 MSTORE DUP1 PUSH1 0x0 MSTORE PUSH1 0x40 PUSH1 0x0 KECCAK256 PUSH1 0x0 SWAP2 POP SWAP1 POP SLOAD DUP2 JUMP JUMPDEST PUSH1 0x60 DUP2 PUSH1 0x0 DUP1 DUP6 DUP2 MSTORE PUSH1 0x20 ADD SWAP1 DUP2 MSTORE PUSH1 0x20 ADD PUSH1 0x0 KECCAK256 DUP2 SWAP1 SSTORE POP SWAP3 SWAP2 POP POP JUMP JUMPDEST PUSH1 0x0 DUP2 CALLDATALOAD SWAP1 POP PUSH2 0xE1 DUP2 PUSH2 0x248 JUMP JUMPDEST SWAP3 SWAP2 POP POP JUMP JUMPDEST PUSH1 0x0 PUSH1 0x20 DUP3 DUP5 SUB SLT ISZERO PUSH2 0xFD JUMPI PUSH2 0xFC PUSH2 0x232 JUMP JUMPDEST JUMPDEST PUSH1 0x0 PUSH2 0x10B DUP5 DUP3 DUP6 ADD PUSH2 0xD2 JUMP JUMPDEST SWAP2 POP POP SWAP3 SWAP2 POP POP JUMP JUMPDEST PUSH1 0x0 DUP1 PUSH1 0x40 DUP4 DUP6 SUB SLT ISZERO PUSH2 0x12B JUMPI PUSH2 0x12A PUSH2 0x232 JUMP JUMPDEST JUMPDEST PUSH1 0x0 PUSH2 0x139 DUP6 DUP3 DUP7 ADD PUSH2 0xD2 JUMP JUMPDEST SWAP3 POP POP PUSH1 0x20 PUSH2 0x14A DUP6 DUP3 DUP7 ADD PUSH2 0xD2 JUMP JUMPDEST SWAP2 POP POP SWAP3 POP SWAP3 SWAP1 POP JUMP JUMPDEST PUSH1 0x0 PUSH2 0x15F DUP3 PUSH2 0x1D9 JUMP JUMPDEST PUSH2 0x169 DUP2 DUP6 PUSH2 0x1E4 JUMP JUMPDEST SWAP4 POP PUSH2 0x179 DUP2 DUP6 PUSH1 0x20 DUP7 ADD PUSH2 0x1FF JUMP JUMPDEST PUSH2 0x182 DUP2 PUSH2 0x237 JUMP JUMPDEST DUP5 ADD SWAP2 POP POP SWAP3 SWAP2 POP POP JUMP JUMPDEST PUSH2 0x196 DUP2 PUSH2 0x1F5 JUMP JUMPDEST DUP3 MSTORE POP POP JUMP JUMPDEST PUSH1 0x0 PUSH1 0x20 DUP3 ADD SWAP1 POP DUP2 DUP2 SUB PUSH1 0x0 DUP4 ADD MSTORE PUSH2 0x1B6 DUP2 DUP5 PUSH2 0x154 JUMP JUMPDEST SWAP1 POP SWAP3 SWAP2 POP POP JUMP JUMPDEST PUSH1 0x0 PUSH1 0x20 DUP3 ADD SWAP1 POP PUSH2 0x1D3 PUSH1 0x0 DUP4 ADD DUP5 PUSH2 0x18D JUMP JUMPDEST SWAP3 SWAP2 POP POP JUMP JUMPDEST PUSH1 0x0 DUP2 MLOAD SWAP1 POP SWAP2 SWAP1 POP JUMP JUMPDEST PUSH1 0x0 DUP3 DUP3 MSTORE PUSH1 0x20 DUP3 ADD SWAP1 POP SWAP3 SWAP2 POP POP JUMP JUMPDEST PUSH1 0x0 DUP2 SWAP1 POP SWAP2 SWAP1 POP JUMP JUMPDEST PUSH1 0x0 JUMPDEST DUP4 DUP2 LT ISZERO PUSH2 0x21D JUMPI DUP1 DUP3 ADD MLOAD DUP2 DUP5 ADD MSTORE PUSH1 0x20 DUP2 ADD SWAP1 POP PUSH2 0x202 JUMP JUMPDEST DUP4 DUP2 GT ISZERO PUSH2 0x22C JUMPI PUSH1 0x0 DUP5 DUP5 ADD MSTORE JUMPDEST POP POP POP POP JUMP JUMPDEST PUSH1 0x0 DUP1 REVERT JUMPDEST PUSH1 0x0 PUSH1 0x1F NOT PUSH1 0x1F DUP4 ADD AND SWAP1 POP SWAP2 SWAP1 POP JUMP JUMPDEST PUSH2 0x251 DUP2 PUSH2 0x1F5 JUMP JUMPDEST DUP2 EQ PUSH2 0x25C JUMPI PUSH1 0x0 DUP1 REVERT JUMPDEST POP JUMP INVALID LOG2 PUSH5 0x6970667358 0x22 SLT KECCAK256 0x2D 0xD9 0xC8 0xB7 0xD3 0xCB CREATE2 0xB9 PUSH4 0x9E65F07 PUSH16 0xFE3C5CBB003136B13C777BEC20AA17A3 0xEB DUP2 PUSH5 0x736F6C6343 STOP ADDMOD SDIV STOP CALLER "
				},
				"gasEstimates": {
					"creation": {
						"codeDepositCost": "132200",
						"executionCost": "177",
						"totalCost": "132377"
					},
					"external": {
						"test(uint256,uint256)": "infinite",
						"testmapping(uint256)": "infinite"
					}
				},
				"methodIdentifiers": {
					"test(uint256,uint256)": "eb8ac921",
					"testmapping(uint256)": "22c8c969"
				}
			},
			"storageLayout": {
				"storage": [
					{
						"astId": 5,
						"contract": "contracts/task 1.sol:Mapping",
						"label": "testmapping",
						"offset": 0,
						"slot": "0",
						"type": "t_mapping(t_uint256,t_uint256)"
					}
				],
				"types": {
					"t_mapping(t_uint256,t_uint256)": {
						"encoding": "mapping",
						"key": "t_uint256",
						"label": "mapping(uint256 => uint256)",
						"numberOfBytes": "32",
						"value": "t_uint256"
					},
					"t_uint256": {
						"encoding": "inplace",
						"label": "uint256",
						"numberOfBytes": "32"
					}
				}
			},
			"userdoc": {
				"kind": "user",
				"methods": {},
				"version": 1
			}
		}
	}
}